:020000040800F2
:100000000018002079010008511C0008531C00084A
:1000100000000000000000000000000000000000E0
:10002000000000000000000000000000551C000857
:100030000000000000000000571C0008591C0008C8
:10004000091A0008091A0008091A0008091A000804
:10005000091A0008091A0008091A0008091A0008F4
:10006000091A0008091A0008091A0008091A0008E4
:10007000091A0008091A0008091A0008091A0008D4
:10008000091A00080000000000000000091A00081A
:1000900000000000091A0008091A0008091A0008DF
:1000A00000000000091A0008091A0008091A0008CF
:1000B000091A000800000000091A0008651C000861
:1000C00073B501F08BFC0022204B2149D3188B42E1
:1000D00025D3204B204A934226D3002501F082FCF1
:1000E00001A9684601F072FC1C4E1D4CA41BA41013
:1000F000AC421CDC00261B4D1B4C641BA410B442FC
:100100001ADC0199009801F04BFD0600174D184CC0
:10011000641BA410002C14DC300001F053FC1549C2
:10012000895804321960CFE7002204C3D2E7AB003C
:10013000F35898470135DBE7B300EB589847013691
:10014000DDE7013CA300EB589847E3E700000020FF
:10015000040100200401002064070020D0010008F1
:10016000D0010008D0010008D0010008D00100082B
:10017000D0010008142A000809480047FEE70420BF
:100180007146084202D0EFF3098001E0EFF30880E6
:100190007146044A1047FEE7FEE7FEE7704700009D
:0801A000C100000897010008EE
:1001A800142A00080000002004010020142A000876
:1001B8000000001000000010040100206407002067
:0801C80000000010000000100F
:1001D00010B5040001F05CFBFA21890002F030FB4D
:1001E00000F06AF8012000222100404200F030F8BF
:1001F000002010BD1023064A10B5116800200B43E3
:100200001360FFF7E5FF01F0FDFC002010BDC046C4
:1002100000200240024A1368013313607047C04651
:100220001C010020014B18687047C0461C010020CB
:1002300037B50190FFF7F6FF019C0500631C5A1EBD
:100240009341E418FFF7EEFF401BA042FAD337BDFD
:1002500030B5FF2503242A00C3B21C40E400A240AD
:1002600089012940D243A14000280BDA0F20034026
:10027000083B0A489B089B001B18D86902401143A1
:10028000D96130BD064B80088000C018C0239B0098
:10029000C45822401143C150F3E7C04600ED00E0CE
:1002A00000E100E01F2318401E3B8340014A136019
:1002B0007047C04600E100E0094A431E0120934216
:1002C0000DD8C021074A08485360036A09061B027B
:1002D0001B0A0B43036200200723906013607047E2
:1002E000FFFFFF0010E000E000ED00E0054B1A68A2
:1002F000042802D110431860704704218A431A6011
:10030000FAE7C04610E000E0704710B5FFF7FCFFC9
:1003100010BD0000F0B50B6887B003930023019176
:10032000039ADA4001D107B0F0BD01229A4002924F
:100330000299039A0A40009200D185E0019A1024A4
:1003400052681700A743022F0ED107250F211D4029
:10035000AD00A940DC08A4000419266A8E43019967
:100360000969A9400E432662032425005E00B540BA
:100370001440ED43B4400168013F29400C43046040
:10038000012F0ED801998768CC682F40B4403C43B8
:100390008460D406E40F9C40476802998F433C4335
:1003A0004460C46801992C408D68B5402543C56000
:1003B000D10049D50127254C0326A5691E403D43A0
:1003C000A561A469B6003C400594059C0F24B44087
:1003D0001F499D08AD006D18A968A14302919021A5
:1003E0000024C905884208D01A493C00884204D03C
:1003F000194F0434B84200D1033CB44002990C4375
:100400000099AC600E00154CCD4327683E43D103E4
:1004100001D43E002E4026606768009E3E43910353
:1004200001D43E002E406660A768009E3E43D10284
:1004300001D43E002E40A660E668009F374392023A
:1004400001D42E403700E760013369E70010024015
:10045000000001400004004800080048000401407A
:1004600000690840411E8841C0B27047002A01D08F
:10047000816170478162FCE743695940416170477F
:1004800070B504000120002C28D0EA25FF35635DFB
:10049000DBB2002B05D1F4225200A354200002F05D
:1004A00027F80323220000216068635528320023C7
:1004B000884214D122000932FF32994219D100201A
:1004C000012123689A1C9E1D5033D187D087F08765
:1004D00018800D4BD387631DD877615570BD0126F9
:1004E00011705670D370D3601361536189191C3237
:1004F000DDE7002013705070D070D0601061506143
:1005000001331C32D9E7C04600BFFFFF80210368DA
:10051000090258331A8800200A431A807047F422CF
:1005200010B55200835C04000220012B09D0012386
:10053000A354002906D1236880314C331980002050
:10054000A05410BD631DD977F9E70000F7B57F26E9
:100550004DB204000E401C20002D1DDA7043010036
:1005600028316118CB70F423ED0F0E704D70CA6006
:100570005B00E55C0220012D00D1EDE00138E05484
:10058000C8782368032814D80D78894EAD005D190A
:1005900002F042F906500C4B41430931FF31E0E7CC
:1005A000288830408026B600064301E028880640AF
:1005B0002E8008787F4E8446674685005D1928881E
:1005C00030407D4E3743384328808D7A794F087804
:1005D000BC460196002D64D101268D88C000B5432C
:1005E0004E7837001E005036002F27D032889A18D8
:1005F00010188022D200801805800A7892009A187C
:100600001088450604D5674607406C4807431780A5
:100610000A786B4992009B181A88114020224A40A0
:10062000019911430A001A8092E028883040C026C0
:10063000F600B9E7288830408026F9E73788DF19C7
:100640003818604FC019058008783588C0004019F7
:100650005D4D5D1940193E2A1CD95509D20601D1BC
:10066000013DADB2594AAD02154305800A789200AA
:100670009A181088450404D565462840544D2843EF
:1006800010800A78534992009B181A881140C022A2
:100690009201C4E701265508324200D0AD19AD02DF
:1006A000E3E78000181802884B4D454F15404B4A30
:1006B0002A431D0002800A7850352888D20012187B
:1006C0008020D218C00012180120CE8886431680E0
:1006D00080260A782D88D20052193A4DD218521924
:1006E0000D89F601854315800A78487892009A189A
:1006F000002832D11088304204D065462840344D5D
:10070000284310800A782D4892009A1815886E06A2
:1007100003D5664635400543158066460A78920043
:100720009A1815883540284310800A782948920085
:100730009A1815880540C02080016840019D284313
:1007400010800A7892009B181A8817402F431F8048
:10075000F42300205B00E054FEBD10881C4D3042A5
:1007600003D066463040284310800A7892009A18D9
:100770001088460604D566463040104E304310803F
:1007800066460A7892009A18108830400543158012
:100790000A7892009A18108807400198074317803A
:1007A0000A780C4992009B181A880A4002433AE7DB
:1007B0008F89FFFF0F0F00008080FFFFC080FFFFC9
:1007C000BF8FFFFF04040000060400000080FFFF4D
:1007D00080C0FFFF8FBFFFFF0F0E00008081FFFF73
:1007E000F0B506007F204AB208401C23002A2EDA0A
:1007F000434328331900F4237118D20F08704A704C
:100800005B00F25C0220012A20D00122F2540A7817
:100810003368887A92004F783B4D9A18002827D188
:100820001088002F17D0440604D5384C2040384C8F
:10083000204310800A78374992009B181A880A4092
:1008400015431D80F42300205B00F054F0BD594394
:100850000931FF31CFE7440404D52C4C20402E4C05
:10086000204310800A782D4992009B181A88E6E7E9
:1008700080201488C001204084462448002F22D1C3
:100880006746002F03D0244F04403C4314800A786D
:100890001F4C92009A181788A4467C0603D564461C
:1008A00007402743178064460A7892009A181788F1
:1008B0003840044314800A78184C92009A18108823
:1008C00020402843B5E76746002F03D0124F04406D
:1008D0003C4314800A7892009A181488670603D55E
:1008E0000B4F04403C4314800A780B4F92009A1837
:1008F00014882040074317800A78064C92009A1803
:10090000108820402843ACE78080FFFF0F0F0000D5
:10091000C080FFFFBF8FFFFF80C0FFFF8FBFFFFFC3
:10092000F0B51C257F242F0021404F43C7193C0000
:100930000026FC34FF37E26123626662BE72797280
:10094000A26993422FD99B1A23624D434519FF3563
:10095000EE7C04686B7A002E28D1250050352D8856
:10096000DB005B19354D65195B193E2A5DD95509C8
:10097000ADB2D20601D1013DADB2314AAD0215434F
:100980001D801C2359434018FF30437A9B00E41814
:1009900022882C4B00201A40C0239B015A402A4B2E
:1009A00013432380F0BD26621A00CEE7AD7A002DF6
:1009B0002FD1250050352D88DB005B19234D65199B
:1009C0005B193E2A1DD95509ADB2D60601D1013DAC
:1009D000ADB21B4EAD0235431D801C234B43C318E3
:1009E000FF339D7A5B7A002DB7D0012DC9D1250048
:1009F00050352D88DB00E3185B19104D5B191A8008
:100A0000BFE75508ADB2D60701D50135ADB2AD028D
:100A1000E2E7012DE1D1250050352D88DB00E318F8
:100A20005B190A4D5B191A80D7E75508ADB2D2079A
:100A300001D50135ADB2AD02A2E7C0460604000003
:100A40000080FFFF8FBFFFFF8080FFFF02040000D8
:100A5000F42330B55B00C25C04000220012A20D0E0
:100A6000012248B2E2547E32CD3B0A40FF3B0028CF
:100A700018DA534328331900012361188B70C30F10
:100A80000A704B7025681249002A0FD12B88114A31
:100A90001A40114B534019432980F42300205B0076
:100AA000E05430BD59430931FF31E5E79200AA18FF
:100AB0001388002806DA09480340102043401943F0
:100AC0001180EAE70648034080204001F6E7C0466F
:100AD0008080FFFFBFBFFFFF10100000BF8FFFFF30
:100AE0008FBFFFFF70B57F24020048B20C401C236B
:100AF00000282FDA634328331900002351188B7024
:100B0000C00FE93348700C70FF33D45C0220012C15
:100B10001FD00138D0544B7808781568184C8000E5
:100B2000002B1BD0281803885E0604D5154E3340D1
:100B3000154E334303800B7814489B00EB1819883B
:100B40000840302141400C431C80F42300205B000E
:100B5000D05470BD59430931FF31CEE72B181888A6
:100B6000460404D5074E3040094E304318800B78B8
:100B700008489B00EB1819880840C0218901E1E76B
:100B80008080FFFF0F0F0000C080FFFFBF8FFFFFBF
:100B900080C0FFFF8FBFFFFF70B58024E400001905
:100BA0000C0001335B088218561A3619002B00D14D
:100BB00070BD657820782D0205433580013B0234F5
:100BC000F2E70000F8B57F250D401C21694341186C
:100BD0008A630A000400012600202932CB630864DE
:100BE000013A567015704A6B93422FD99B1ACB630A
:100BF0001C21694361180B000F0032331B782068F9
:100C000096B22837002B24D18A8D3300896BFFF7E9
:100C1000C3FF22681300503319883B78DB00D318D8
:100C2000504A5B189B181E801C214D4365192835BE
:100C30002A78236892009B1819884B4A002011409B
:100C400030225140494A0A431A80F8BDC8631A004D
:100C5000CEE73B7829319F003F5A09787F0645D57A
:100C6000002937D1010050310988DB005B18404969
:100C700041185B183E2A25D9510989B2D20601D103
:100C8000013989B23B4A8902114319801C236B4305
:100C9000E3181A8E1C276F43E7193300B96BFFF76F
:100CA0007BFF3B0029331B782168002B4DD128376F
:100CB0003B789B00CB181A882F4911402F4A0A43D2
:100CC0001A80B1E7510889B2D20701D5013189B242
:100CD0008902DAE70129D9D1020050321288DB00FB
:100CE000C3189B18224A9B181E80CFE7002920D1E9
:100CF000010050310988DB005B181A4941185B1864
:100D00003E2A0ED9510989B2D20601D1013989B2E0
:100D1000184A8902114319801C236B43E318DA8DAA
:100D2000B8E7510889B2D20701D5013189B28902E9
:100D3000F1E70129F0D1020050321288DB00C3181C
:100D40009B18084A9B181E80E6E7012B00D06BE732
:100D500028373A7892008B181A8807491140084AB8
:100D6000ADE7C04602040000BF8FFFFF8080FFFF99
:100D7000060400000080FFFF0F0F0000C080FFFF8F
:100D800080C0FFFF70B58025ED0040195C08821817
:100D900026000800551A2D18002E07D164000919E5
:100DA0001219DB0701D513880B7070BD2D88013E29
:100DB00005702D0A45700230ECE70000F0B50368BD
:100DC00085B00633DB8F04001BB2002B00DA61E034
:100DD00023680633DA8F52050AD5DA8F8649200058
:100DE0000A40DA8701F0C8FB00212000FFF797FBDB
:100DF0002268931DD98F490403D5D98F7F480140BC
:100E0000D987D98F890403D5D98F7D480140D987E7
:100E1000DB8FDB040FD50421931CDA8F20008A437B
:100E2000DA87784ADA8701F0C5FB2368764906330A
:100E3000DA8F0A40DA8723689A1DD18F090512D507
:100E4000D18F724802330140D1870821D88F0143E6
:100E5000D9870421D88F0143D987D38FDB0402D4EB
:100E6000200001F095FB23680633DA8F920506D542
:100E7000DA8F674920000A40DA8701F076FB2368A1
:100E80000633DA8FD20503D5DA8F62490A40DA8752
:100E900005B0F0BD02AB9F1D00233B80206803AA74
:100EA000831DDB8F9BB213801BB2002B00DB8FE70F
:100EB0000F2316881E4000D0BCE010211388194073
:100EC0000388002926D1544A13400380030050337D
:100ED0001A88230028331B78DB00C0184F4B80187A
:100EE000C0180388A26B9B059B0D2364D318A363D2
:100EF000200001F02FFB631DDA7F002ACED0E06BCB
:100F00000028CBD18022D97F114322684C32118036
:100F1000D877C3E73B803A88120520D503005033C9
:100F20001A8884235B00E35C2100DB00C3189B1854
:100F30003B4AED319B1822001B8809329B059B0D13
:100F4000FF329361FF319288FFF71CFF2268354919
:100F5000138820000B40138001F0E6FA9EE73A88E0
:100F600012B2002A9ADA2F4A2500134003800300A8
:100F700050331A8884235B00E35C0935DB00C31817
:100F80009B18274AFF359B181B889B059B0DAB615F
:100F900007D0AA882969FFF7F5FE2B69AA699B1873
:100FA0002B610021200001F0C9FA22681C491300BE
:100FB00050331B88E8685118C9183E2813D94309D3
:100FC0009BB2C00601D1013B9BB217489B02034371
:100FD0000B801188154B1940C0239B015940144BBD
:100FE0000B4313805AE743089BB2C00701D5013376
:100FF0009BB29B02ECE7C046FFFBFFFFFFBFFFFF7A
:10100000FFDFFFFF00BDFFFFFFEFFFFFFFF7FFFF69
:10101000FFFDFFFFFFFEFFFF0F8FFFFF0204000039
:10102000060400008F0F00000080FFFF8FBFFFFF4E
:101030008080FFFFB300C11801930B883B803A8882
:1010400012B2002A3BDA774A050013400B801C23BA
:101050007343E3181A00FF32D17C5035527A0029CD
:1010600073D12988D20052186F4912185218158866
:10107000AD05AD0D08D01A00FC331900FE32D2893F
:101080002B00C969FFF77EFE1C231900714361180C
:101090000800FC30426A52194262C2695219019238
:1010A000C261026A002A03D08069854200D37FE0D2
:1010B0007343E318FF33597A200001F03FFA3B886D
:1010C0001B0600D4EAE62068B300C3181A88574903
:1010D00005000A401C21714361181A800B000A00A8
:1010E00032331B7850352832002B69D113782D8884
:1010F000DB005B194E4A1B189B181B889B059B0D38
:101100000B6403D08A8D896BFFF746FD22681300BC
:10111000503318881C235E43A619310028310B7800
:10112000DB00D318424A1B189B181A88B36B920530
:10113000920D32649A18F36BB26309782000002B89
:1011400000D06CE001F006FAA8E6D1009200125A35
:10115000520420D52A888218521835495218158809
:10116000AD05AD0D08D01A00FE32128AFC3319000D
:101170002B00C969FFF706FE1C237343E318FF33F6
:101180005B7A22689B00D3181A882A4911402A4AA0
:101190000A431A8078E72A8882185218224952187E
:1011A0001588AD05AD0DE7D01A00FE32528ADDE795
:1011B000FF311300497A019A2000FFF7B1FB7EE767
:1011C0001378DA009B001B5A5B061CD52B88C318CA
:1011D0009B18174A9B181B889B059B0D0B6403D01B
:1011E000CA8D896BFFF7D8FC1C237343E31828339F
:1011F0001B7822689B00D3181A880E4911400F4AA9
:101200000A431A8082E72B88C3189B18064A9B184A
:101210001B889B059B0D0B64E6D00A8EE1E7FFF768
:10122000D1FC3BE68F0F0000060400000F8FFFFF8C
:10123000020400000F0F0000C080FFFF80C0FFFF0E
:1012400030B51C240D060BD57F252940614328317C
:10125000411898B2002A07D18A728880002030BDD8
:1012600061430931FF31F3E701221B0C8A72C88008
:101270000B81F3E7F0B5036885B00500DB0732D4D6
:101280002B689B0700D585E02B681B0700D5C3E0C2
:101290002B685B0700D5E4E02B68DB0619D56A698B
:1012A000B54C0423012A00D04BE1616B0B4363630F
:1012B000636B1A436263FEF7B5FF0600636B9B071F
:1012C00000D437E1F821626BAB698A43DB0013433A
:1012D00063632B689B0600D55AE1696A002900D038
:1012E00095E1002018E00C21A34C62680A40042A12
:1012F0000BD063680B40082B10D1C02263685202E8
:10130000134080225202934208D123689B03B7D531
:101310006B68002BB4D1012005B0F0BD6B68012BC8
:1013200011D1802322685B0213432360FEF77AFF0A
:10133000060023689B03A3D4FEF774FF801B642878
:10134000F7D90320E8E7002B14D123688B4A134018
:10135000236023688A4A13402360FEF763FF060078
:1013600023689B0300D48BE7FEF75CFF801B642897
:10137000F6D9E6E7052B05D180232268DB0213436B
:101380002360CEE723687D4A1340236023687C4AAC
:101390001340CAE70C22784C636813420BD0636891
:1013A0001340082B15D1C0226368520213408022DB
:1013B000120293420DD123689B0702D5EB68012BE3
:1013C000A9D1F82122682B698A43DB0013432360EB
:1013D0005AE7EA680123002A0ED0226813432360EB
:1013E000FEF720FF060023689B07EAD4FEF71AFFEA
:1013F000801B0228F7D9A4E722689A432260FEF7EF
:1014000011FF060023689B0700D43DE7FEF70AFFA3
:10141000801B0228F6D994E7EA690123564C002A7A
:101420000FD0626A13436362FEF7FCFE0600636A34
:101430009B0700D52CE7FEF7F5FE801B0228F6D9A6
:101440007FE7626A9A436262FEF7ECFE0600636A17
:101450009B0700D41CE7FEF7E5FE801B0228F6D9A7
:101460006FE78022444C5205E3690027134207D1FD
:10147000E36901371343E361E36913400393039B7B
:101480008023404E5B0032681A4206D0AB68012BC5
:1014900013D1226A134323622FE03268134333606F
:1014A000FEF7C0FE01903368DB05EFD4FEF7BAFE0D
:1014B000019BC01A6428F6D943E70122002B13D1FF
:1014C000236A93432362236A033293432362FEF722
:1014D000A9FE0600236A9B0724D5FEF7A3FE2A4B2C
:1014E000801B9842F6D92CE7052B0AD1216A013BD3
:1014F0000B432362236A1A432262FEF793FE06001F
:101500000DE0236A934304222362236A9343C2E7D4
:10151000FEF788FE1C4B801B984200D911E7236A16
:101520009B07F5D5012F00D0B6E6E369174A1340B3
:10153000E361B1E6FEF776FE801B022800D8BDE627
:10154000FFE6053203D1626B9A436263BAE6626BCF
:10155000134301226363636B93436363FEF762FE8D
:101560000600636B9B0700D4B3E6FEF75BFE801BAF
:101570000228F6D9E5E6C04600100240FFFFFEFF54
:10158000FFFFFBFF0070004088130000FFFFFFEF2C
:101590000C21424C62680A408A4209D063680B40C1
:1015A000082B0ED1C022636852021340934208D127
:1015B000636BDB0300D490E62B6A012B00D0AAE614
:1015C0008BE62B6A002B11D08023626B5B021343E6
:1015D0006363FEF727FE0600636BDB0300D57CE642
:1015E000FEF720FE801B0228F6D9AAE6636B2C4A80
:1015F00013406363FEF716FE0600636BDB0300D443
:101600006BE6FEF70FFE801B0228F6D999E60C2246
:10161000224C63681340082B00D17CE62368214AE2
:101620001340236002292BD1FEF7FCFD060023683E
:101630009B011FD40F22E36A93432A6B1343E36297
:10164000A96AEB6A62680B4317490A401343636057
:10165000802322685B0413432360FEF7E3FD05004B
:1016600023689B0100D53CE6FEF7DCFD401B022809
:10167000F6D966E6FEF7D6FD801B0228D7D960E6CC
:10168000FEF7D0FD050023689B0100D429E6FEF794
:10169000C9FD401B0228F6D953E6C046001002409F
:1016A000FFFFFEFFFFFFFFFEFF7FC2FF30B51B4CB9
:1016B00089B010222100684601F04EF9210004ADE6
:1016C00010221031280001F047F90C20144A536809
:1016D0001840082809D00C3843425841114B404269
:1016E0001840114BC01809B030BD0F206C46D26AAB
:1016F000990C01400240645CA95CC0228020520227
:1017000013404002834201D1074802E09342FBD1DB
:10171000064801F095F86043E5E7C0466A290008ED
:1017200000100240005A620200127A00006CDC02D3
:10173000F7B50122504C06002368019113408B42FB
:101740001FD33268930728D4D3072ED401232268ED
:1017500001991A408A4200D97EE03368474C5B0702
:1017600000D581E0FFF7A2FF6368454A1B061B0F07
:10177000D35CD840434B18600020FEF729FD0020C1
:101780000AE02368019993430B43236023681340C5
:10179000019A9342D5D00120FEBDF02037494B6815
:1017A0008343B06803434B60CEE77268334D012A30
:1017B0001AD12B689B03EED503216B688B4313432F
:1017C0006B60FEF72FFD73680700012B1CD10C2204
:1017D0006B681340042BB9D0FEF724FD2A4BC01BC5
:1017E0009842F4D90320D7E7022A03D12B689B0142
:1017F000E2D4D0E7032A03D16B6BDB03DCD4CAE766
:101800002B689B07D8D4C6E7022B0BD10C226B6840
:101810001340082B9AD0FEF705FD1B4BC01B9842C6
:10182000F4D9DFE7032B12D10C226B6813409342EB
:1018300000D18BE7FEF7F6FC134BC01B9842F3D99F
:10184000D0E7FEF7EFFC104BC01B9842CAD80C2320
:101850006A681A42F5D179E722689A4322602268C1
:101860001A4200D179E796E76368084A1340F268A4
:101870001343636076E7C046002002400010024038
:101880008A2900080800002088130000FFF8FFFFE5
:10189000014B18687047C04608000020F0B5036887
:1018A00085B00500DB0328D5802200213F4C52057E
:1018B000E3690191134208D1E3691343E361E369EA
:1018C00013400393039B012301938023384E5B0055
:1018D00032681A4238D0C022236A92001340354E33
:1018E00043D1236A1E406B681E43019B2662012B75
:1018F00003D1E369304A1340E3612A68D30706D570
:1019000003202A490B6B8343A86803430B639306A8
:1019100006D5102025490B6B8343E86803430B630E
:10192000930306D5802021490B6B834368690343E9
:101930000B630020530516D540211C4A136B8B43C3
:1019400029690B4313630EE0326813433360FEF7DB
:1019500069FC07003368DB05BDD4FEF763FCC01BE0
:101960006428F7D9032005B0F0BD69680A409A429F
:10197000B7D08023226A206A11005B0203432362EE
:10198000236A0E483140034023622162D307A8D561
:10199000FEF748FC0700236A9B07A2D4FEF742FC2F
:1019A000074BC01B9842F6D9DCE7C0460010024046
:1019B00000700040FFFCFFFFFFFFFFEFFFFFFEFF97
:1019C0008813000010B500F011F800000123036037
:1019D000014B0B607047C0460000002010B500F0BE
:1019E00015F810BD10B500F041F810BDBFF34F8FD2
:1019F000034B044ADA60BFF34F8FC046FDE7C04691
:101A000000ED00E00400FA05FEE700000121114BA3
:101A100011481A680A431A605A6802405A601A68E4
:101A20000E4802401A601A680D4802401A605A684F
:101A30000C4802400F205A60DA6A8243DA621A6B5D
:101A4000094802401A635A6B8A435A6300229A601B
:101A50007047C046001002400CB8FF08FFFFF6FEBA
:101A6000FFFFFBFFFFFFC0FF2CFEFFFF0C2270B546
:101A7000154D164E6B681340082B0AD0144B33607B
:101A80006B68144A1B061B0FD35C3268DA40326065
:101A900070BD0F206C686B68E96AC022A40C04401A
:101AA000014080205202134002340131400283423F
:101AB00001D1074802E09342FBD1074800F0C0FE85
:101AC00044433460DCE7C0460010024008000020B8
:101AD00000127A008A290008006CDC0230B520234D
:101AE0000024012599B00BA80B9313951494FFF7CC
:101AF000C1FB07232900019301A8043B029303942F
:101B00000494FFF715FE802305A89B0205930A9411
:101B1000FFF7C4FEFFF7BCFEFA21890000F090FE3B
:101B2000FEF7CAFB0420FEF7E1FB22002100684219
:101B3000FEF78EFB19B030BD30B587B0FFF7CEFF92
:101B400080209024154A80025169E40501435161C7
:101B5000536908210340009320000122009BFEF7F7
:101B600085FC002220001021FEF780FC00250223C6
:101B700001A92000019302950395FEF7CBFB1823E2
:101B800001A901932000173B029303950495FEF7EA
:101B9000C1FB00F06FF807B030BDC0460010024036
:101BA00010B5FEF727FBFFF7C7FFFA208000FEF70E
:101BB0003FFB90200221C005FEF752FC01280ED108
:101BC00002240F4B1B199A1E1078013B197800282C
:101BD00013D10800FEF72CFB0234282CF1D164202D
:101BE000FEF726FB90201021C005FEF745FC902053
:101BF0000821C005FEF740FCF1E700F03FF8EBE7F5
:101C00009A29000807B501200F4A916901439161A3
:101C10009369002203400430110001934042019B6C
:101C2000FEF716FB0022022011004042FEF710FBD7
:101C30000022012011004042FEF70AFB1023034A54
:101C400011680B43136007BD001002400000014003
:101C50007047FEE77047704710B5FEF7DBFAFEF7F6
:101C600054FB10BD10B50248FFF7A8F810BDC046E0
:101C70004403002010B500F025FC10BD012337B54A
:101C80000C4D01ACA070617003222100280023706C
:101C900000F0CCFB0A20FEF7CBFA00230322210040
:101CA00028006370A37000F0C1FB0A20FEF7C0FAA1
:101CB00037BDC0462001002010B50223002813D0F4
:101CC00085239B00C458002C01D00024C450002957
:101CD00002D084239B00C150FE2301215B00C1542C
:101CE000027000F07BFC0023180010BD02230029C5
:101CF00003D085239B00C15000231800704710B506
:101D000000F09CFC002010BD85239B00C35810B53B
:101D1000002B01D1022010BD1B6898470028FAD083
:101D2000F8E7852310B59B00C3585B6898470020EF
:101D300010BD000082239B0070B5C5180400280068
:101D400000F0A6FAFA2301225B00E250124BE25A9D
:101D5000163BE2501033E15CEA3BFF3B0B40012BAA
:101D60000FD0002B07D0022B10D07F2320009943E7
:101D700000F096FC03E02900200000F0F1F80020BC
:101D800070BD2900200000F0FDF9F8E729002000CF
:101D900000F014FAF3E7C0460E02000070B504002C
:101DA0001500002927D1FA235B00C358032B0FD15C
:101DB0000530FF308368C26893420BD99B1A836059
:101DC0009A4200D91A0092B22900200000F059FB73
:101DD000002070BD85239B00E3581B69002B06D0B3
:101DE000FE225200A25C032A01D120009847200065
:101DF00000F04FFBECE785239B00C3589B69002B49
:101E0000E6D0FE225200825C032AE1D19847DFE748
:101E1000F8B50D0004001100002D41D1FA235B003C
:101E2000C358022B0ED1C269066AB24213D9921B63
:101E3000C26192B200F01DFB2B002A002900200095
:101E400000F082FC80239B00E25C012A01D1002289
:101E5000E2540020F8BD87693100380000F076FDBB
:101E60000D1E0CD1BE420AD8FC267600A3599F4213
:101E700005D20A00200000F0FCFAA551DCE785231A
:101E80009B00E358DB68002B06D0FE225200A25CC8
:101E9000032A01D120009847200000F006FBD1E77B
:101EA00085239B00C3585B69002BD2D0FE225200D1
:101EB000825C032ACDD129009847CAE7002270B579
:101EC00004001100402300F0C9FB23004025FC332F
:101ED0005D6100222B008021200000F0BFFBFE236B
:101EE00001225B002562E2541C33E358002B07D02B
:101EF00063682000D9B285239B00E3585B6898474C
:101F0000002070BD017400207047FE23FE225B009C
:101F1000C15CFF328154FA3AFF3AC2540020704744
:101F2000FE23FF33C25C013BC25400207047FE23F6
:101F300010B55B00C35C032B06D185239B00C358FF
:101F4000DB69002B00D09847002010BD10B50400BD
:101F5000802100F0A5FB0021200000F0A1FB10BDB6
:101F600073B5040048780D00092800D97EE000F020
:101F70005DFCD400F5007D00E7007D0072000A00E2
:101F80007D00C30095004B88180A013806286DD8DB
:101F900000F042FC041F2E6C6C4A550084236A46F4
:101FA0009B00E358207C1B68911D98476B469E1D43
:101FB0003188002970D0EA88002A6DD00B1C91422C
:101FC00000D9131C01009AB23380200000F043FABC
:101FD00062E08523227C9B00E358002A06D19B6A9D
:101FE0006A46901D984702234370DFE7DB6AF7E7F4
:101FF000D8B205283AD884229200237CA25800F057
:102000000BFC03090B0D0F115268694618000631CD
:102010009047CBE79268F8E7D268F6E71269F4E7F1
:102020005269F2E79269F0E7237C002B1ED18523E9
:102030006A469B00E358901D5B6B9847B6E7237C8C
:10204000002B13D185236A469B00E358901D1B6B20
:1020500098470723C8E78B88002B07D1CB88002B34
:1020600004D1FE267600A35D032B03D12000FFF7E9
:102070006DFF11E07F234D8820001D408033FF332A
:10208000E554290000F040FB200000F002FA022392
:10209000002D00D10123A355002076BD8978384D4D
:1020A00029700129E2D8FE235B00E25C022A0DD0F0
:1020B000032ADBD1002915D102222000E2546160FD
:1020C000FFF72FFE200000F0E4F9E5E70029F9D042
:1020D000012103226160E2542000FFF715FE02286F
:1020E000F0D1C3E761680129ECD0C9B22000FFF745
:1020F00018FE29786160EFE7CA88012AB6D1FE236D
:102100005B00E35C022B03D0032BAFD1211D5CE706
:1021100000232100A360083157E7FE235B00E35C46
:10212000023B012BA2D80123E36081239B00E358EB
:10213000002B01D00323E360210002220C3144E78D
:102140004B88012BA8D181229200A35085239B00AC
:10215000E35829009B6820009847B3E7FE235B0003
:10216000E35C023B012B00D980E74B88012B00D0B8
:1021700092E7812300229B00E2501033E8E7C0463B
:1021800005010020FE2370B55B00C35C04000D0058
:10219000032B0FD10B79012B0CD885239B00C3583F
:1021A0009B689847EB88002B02D1200000F071F962
:1021B000002070BD2000FFF7C9FEF9E760220B7810
:1021C00070B5134004000D00202B06D1F533FF330A
:1021D000C3589B689847002070BD8A886B78D1B23D
:1021E000012B20D0002B2DD0032BF4D1FA33FF3359
:1021F000C35C022B41D0032B03D02000FFF7A6FEC7
:10220000E9E76B88002B03D14B0601D000F048FAB8
:1022100085239B00E35829009B68200098472000F5
:1022200000F037F9D7E7FE235B00C35C022B24D014
:10223000032BE2D16B88002BCDD14B06EFD000F001
:102240003FFAE5E7FE235B00C35C022B15D0032BAE
:10225000D3D17F250D402D01130614D51435200050
:10226000651900F03DFA002810D001232B600222EE
:102270002900200000F0EFF8ADE74B06ABD02000BE
:1022800000F00EFAA7E70535FF35E8E72860EEE72E
:102290000B7803704B784370CA788B7812029B18C6
:1022A00043804A790B7912029B188380CA798B7913
:1022B00012029B18C380704710B50400802100F003
:1022C000EFF90021200000F0EBF910BD002330B53C
:1022D000984201D130BD2B00C45C5D1C002CFAD1AA
:1022E000DBB201335B0013800B7003234B70013BA7
:1022F0000478002CEED0CC5400245A1CD2B2023305
:102300000130DBB28C54F3E722230380004870478E
:102310009400002086239B00C35800201873704748
:102320000A23038000487047C400002086239B00D6
:1023300070B5C358050060200C78044022D0202CD2
:102340000CD148780238092817D800F065FA13092B
:102350001616161616160F058A781A60002070BD1C
:1023600001221900280000F076F8F7E74A88120ADF
:102370005A60F3E7191D0122F4E72800FFF79CFFDC
:102380000220ECE74A780A2A1CD00B2A22D0062A1F
:102390001ED14B881B0A222B07D1CB881A1C4E2B2F
:1023A00000D94E2292B20D49DCE7212B07D1CB8810
:1023B0001A1C092B00D9092292B20949D2E721003F
:1023C0002200CFE7083319000122280000F043F86B
:1023D0002000C4E78A789A60C0E7C0460C0000205D
:1023E000B800002070B5862504008121AD0000F002
:1023F00047F96059002803D000F0BAF9002363516F
:10240000002070BD10B5052303228121040000F0D7
:1024100025F9102000F0A8F986239B000200E05067
:102420000120002A01D00020107310BD1300FE22ED
:1024300010B55200825C032A0BD186229200845888
:10244000227B002A05D1013222730A00812100F08B
:102450006BF9002010BD1300FA2210B502245200BF
:1024600084500A008361C361002100F05DF90020FF
:1024700010BD10B513000A00002100F055F900202E
:1024800010BD10B513000A00002100F05DF9002016
:1024900010BDFA2304225B0010B5C25000231A00BD
:1024A000190000F041F9002010BDFA2305225B005D
:1024B00010B5C25000231A00190000F045F90020A1
:1024C00010BD000010B5074C002207492000FFF79F
:1024D000F3FB06492000FFF709FC2000FFF70FFC83
:1024E00010BDC04620010020D00000205C0000206C
:1024F00007B50B4B02689A4211D18020094A0004AB
:10250000D1690143D161D3690022034001931F20A7
:102510001100019BFDF79CFE1F20FDF7C3FE07BDC8
:10252000005C0040001002400100872310B59B00B2
:10253000ED31FF31C058FFF7FDFB10BD1C234B43AD
:10254000C318FC33DA69872310B59B00C058FFF726
:1025500025FC10BD1C234B43C3189A6B872310B571
:102560009B00C058FFF754FC10BD872310B59B009B
:10257000C058FFF7DCFC10BD70B587240500A4002F
:1025800001210059FFF7BEFC2859FFF797FC70BDE9
:10259000872310B504009B00C058FFF7B6FCA36961
:1025A000002B04D00623024A11690B43136110BDAE
:1025B00000ED00E0836910B50400002B06D0062171
:1025C000054A13698B431361FFF788FA87239B0041
:1025D000E058FFF7A5FC10BD00ED00E0872370B5C3
:1025E000050014489B00C550134B88260360082340
:1025F0000024B600A8514360063B8360C4600361B9
:102600008461C4610462FDF73BFFA85922002100E8
:102610001823FEF715FEA859220058238021FEF743
:102620000FFE8023A8595B0022008121FEF708FEDF
:10263000200070BD44030020005C004088239B0004
:10264000C05810B5FDF762FF0223032801D8024BE2
:102650001B5C180010BDC046C029000810B514004E
:102660001A0023008824A4000059FDF76FFF0223FD
:10267000032801D8014B1B5C180010BDC0290008BD
:1026800088239B00C05810B5FEF7AAF80223032840
:1026900001D8024B1B5C180010BDC046C0290008C1
:1026A00088239B00C05810B5FEF7D2F902230328F7
:1026B00001D8024B1B5C180010BDC046C0290008A1
:1026C00088239B00C05810B5FEF70CFA022303289C
:1026D00001D8024B1B5C180010BDC046C029000881
:1026E00088239B00C35848B21C22002806DA7F20AA
:1026F00001404A439B182A33187870474A439B1875
:10270000FF33D87AF9E7000088239B00C05810B542
:10271000FDF705FF0223032801D8024B1B5C1800BC
:1027200010BDC046C029000810B58824A400005977
:10273000FEF748FA0223032801D8024B1B5C18005D
:1027400010BDC046C029000810B58824A400005957
:10275000FEF7E6F80223032801D8024B1B5C1800A1
:1027600010BDC046C029000800487047080100207D
:1027700070470000122301480B807047EC000020D6
:10278000042301480B8070470001002010B5044C61
:102790000A0004482100FFF799FD200010BDC04643
:1027A00064050020DD29000810B5044C0A00044827
:1027B0002100FFF78BFD200010BDC04664050020FE
:1027C000F029000810B5044C0A0004482100FFF766
:1027D0007DFD200010BDC04664050020062A0008CB
:1027E00010B5044C0A0004482100FFF76FFD2000DB
:1027F00010BDC04664050020C429000810B5044C73
:102800000A0004482100FFF761FD200010BDC0460A
:1028100064050020CF29000802B471464908490028
:10282000095C49008E4402BC7047C04603B471463F
:10283000490840004900095A49008E4403BC7047CA
:10284000002243088B4274D303098B425FD3030AEF
:102850008B4244D3030B8B4228D3030C8B420DD302
:10286000FF22090212BA030C8B4202D31212090290
:1028700065D0030B8B4219D300E0090AC30B8B42CE
:1028800001D3CB03C01A5241830B8B4201D38B037C
:10289000C01A5241430B8B4201D34B03C01A524121
:1028A000030B8B4201D30B03C01A5241C30A8B4264
:1028B00001D3CB02C01A5241830A8B4201D38B024F
:1028C000C01A5241430A8B4201D34B02C01A5241F3
:1028D000030A8B4201D30B02C01A5241CDD2C30965
:1028E0008B4201D3CB01C01A524183098B4201D3E1
:1028F0008B01C01A524143098B4201D34B01C01ACC
:10290000524103098B4201D30B01C01A5241C30843
:102910008B4201D3CB00C01A524183088B4201D3B2
:102920008B00C01A524143088B4201D34B00C01A9E
:102930005241411A00D20146524110467047FFE70A
:1029400001B5002000F006F802BDC0460029F7D00E
:1029500076E770477047C046002310B59A4200D111
:1029600010BDCC5CC4540133F8E70203040506072C
:1029700008090A0B0C0D0E0F1010010203040506C6
:102980000708090A0B0C0D0E0F10000000000000D4
:102990000000010203040607080900FF00FF00FF12
:1029A00000FF00FF00FF00FF00FF00FF00FF00FF2F
:1029B00000C30500120011000D00120018001500E0
:1029C0000002010248494420436F6E66696700486F
:1029D000494420496E746572666163650053544DC5
:1029E0006963726F656C656374726F6E696373009F
:1029F00053544D33322048756D616E20696E746595
:102A000072666163650030303030303030303030E5
:032A100031410051
:102A1400040100200000000000127A0005010906EC
:102A2400A101850105077501950819E029E715003D
:102A34002501810295037508150025640507190011
:102A440029658100C0050C0901A1018502050C1549
:102A54000025017501950809B509B609B709B80932
:102A6400CD09E209E909EA8102C0FFFF0524000853
:102A7400E52300082D2300080000000000000000EA
:102A84001523000800000000000000000000000002
:102A94000000000009230008092300080923000896
:102AA4002123000809022200010100E03209040088
:102AB400000103000100092111010001224E000759
:102AC40005810305000AFFFF092111010001224EBF
:102AD40000FFFFFF0A060002000000400100FFFFA4
:102AE40075270008812700088D270008A9270008FA
:102AF400C5270008E1270008FD270008120100028D
:102B0400000000406D041CC3000201020301FFFF2A
:042B140004030904A9
:04000005080000C12E
:00000001FF
